{
  "_format": "hh-sol-artifact-1",
  "contractName": "S402Facilitator",
  "sourceName": "contracts/S402Facilitator.sol",
  "abi": [
    {
      "inputs": [
        {
          "internalType": "address",
          "name": "initialFeeRecipient",
          "type": "address"
        },
        {
          "internalType": "uint256",
          "name": "initialFeeBps",
          "type": "uint256"
        }
      ],
      "stateMutability": "nonpayable",
      "type": "constructor"
    },
    {
      "inputs": [],
      "name": "EnforcedPause",
      "type": "error"
    },
    {
      "inputs": [],
      "name": "ExpectedPause",
      "type": "error"
    },
    {
      "inputs": [
        {
          "internalType": "address",
          "name": "owner",
          "type": "address"
        }
      ],
      "name": "OwnableInvalidOwner",
      "type": "error"
    },
    {
      "inputs": [
        {
          "internalType": "address",
          "name": "account",
          "type": "address"
        }
      ],
      "name": "OwnableUnauthorizedAccount",
      "type": "error"
    },
    {
      "inputs": [],
      "name": "ReentrancyGuardReentrantCall",
      "type": "error"
    },
    {
      "anonymous": false,
      "inputs": [
        {
          "indexed": true,
          "internalType": "address",
          "name": "by",
          "type": "address"
        }
      ],
      "name": "EmergencyPause",
      "type": "event"
    },
    {
      "anonymous": false,
      "inputs": [
        {
          "indexed": true,
          "internalType": "address",
          "name": "by",
          "type": "address"
        }
      ],
      "name": "EmergencyUnpause",
      "type": "event"
    },
    {
      "anonymous": false,
      "inputs": [
        {
          "indexed": true,
          "internalType": "address",
          "name": "oldRecipient",
          "type": "address"
        },
        {
          "indexed": true,
          "internalType": "address",
          "name": "newRecipient",
          "type": "address"
        }
      ],
      "name": "FeeRecipientUpdated",
      "type": "event"
    },
    {
      "anonymous": false,
      "inputs": [
        {
          "indexed": true,
          "internalType": "address",
          "name": "token",
          "type": "address"
        },
        {
          "indexed": true,
          "internalType": "address",
          "name": "to",
          "type": "address"
        },
        {
          "indexed": false,
          "internalType": "uint256",
          "name": "amount",
          "type": "uint256"
        }
      ],
      "name": "FeesWithdrawn",
      "type": "event"
    },
    {
      "anonymous": false,
      "inputs": [
        {
          "indexed": true,
          "internalType": "address",
          "name": "previousOwner",
          "type": "address"
        },
        {
          "indexed": true,
          "internalType": "address",
          "name": "newOwner",
          "type": "address"
        }
      ],
      "name": "OwnershipTransferred",
      "type": "event"
    },
    {
      "anonymous": false,
      "inputs": [
        {
          "indexed": false,
          "internalType": "address",
          "name": "account",
          "type": "address"
        }
      ],
      "name": "Paused",
      "type": "event"
    },
    {
      "anonymous": false,
      "inputs": [
        {
          "indexed": true,
          "internalType": "address",
          "name": "token",
          "type": "address"
        },
        {
          "indexed": true,
          "internalType": "address",
          "name": "from",
          "type": "address"
        },
        {
          "indexed": true,
          "internalType": "address",
          "name": "to",
          "type": "address"
        },
        {
          "indexed": false,
          "internalType": "uint256",
          "name": "value",
          "type": "uint256"
        },
        {
          "indexed": false,
          "internalType": "uint256",
          "name": "platformFee",
          "type": "uint256"
        },
        {
          "indexed": false,
          "internalType": "bytes32",
          "name": "nonce",
          "type": "bytes32"
        }
      ],
      "name": "PaymentSettled",
      "type": "event"
    },
    {
      "anonymous": false,
      "inputs": [
        {
          "indexed": false,
          "internalType": "uint256",
          "name": "oldBps",
          "type": "uint256"
        },
        {
          "indexed": false,
          "internalType": "uint256",
          "name": "newBps",
          "type": "uint256"
        }
      ],
      "name": "PlatformFeeUpdated",
      "type": "event"
    },
    {
      "anonymous": false,
      "inputs": [
        {
          "indexed": false,
          "internalType": "address",
          "name": "account",
          "type": "address"
        }
      ],
      "name": "Unpaused",
      "type": "event"
    },
    {
      "inputs": [],
      "name": "DOMAIN_SEPARATOR",
      "outputs": [
        {
          "internalType": "bytes32",
          "name": "",
          "type": "bytes32"
        }
      ],
      "stateMutability": "view",
      "type": "function"
    },
    {
      "inputs": [],
      "name": "MAX_PLATFORM_FEE_BPS",
      "outputs": [
        {
          "internalType": "uint256",
          "name": "",
          "type": "uint256"
        }
      ],
      "stateMutability": "view",
      "type": "function"
    },
    {
      "inputs": [],
      "name": "PAYMENT_TYPEHASH",
      "outputs": [
        {
          "internalType": "bytes32",
          "name": "",
          "type": "bytes32"
        }
      ],
      "stateMutability": "view",
      "type": "function"
    },
    {
      "inputs": [
        {
          "internalType": "address",
          "name": "",
          "type": "address"
        }
      ],
      "name": "accumulatedFees",
      "outputs": [
        {
          "internalType": "uint256",
          "name": "",
          "type": "uint256"
        }
      ],
      "stateMutability": "view",
      "type": "function"
    },
    {
      "inputs": [],
      "name": "feeRecipient",
      "outputs": [
        {
          "internalType": "address",
          "name": "",
          "type": "address"
        }
      ],
      "stateMutability": "view",
      "type": "function"
    },
    {
      "inputs": [
        {
          "internalType": "address",
          "name": "owner",
          "type": "address"
        },
        {
          "internalType": "address",
          "name": "token",
          "type": "address"
        },
        {
          "internalType": "address",
          "name": "recipient",
          "type": "address"
        },
        {
          "internalType": "uint256",
          "name": "value",
          "type": "uint256"
        },
        {
          "internalType": "uint256",
          "name": "deadline",
          "type": "uint256"
        },
        {
          "internalType": "bytes32",
          "name": "nonce",
          "type": "bytes32"
        }
      ],
      "name": "getPaymentHash",
      "outputs": [
        {
          "internalType": "bytes32",
          "name": "",
          "type": "bytes32"
        }
      ],
      "stateMutability": "pure",
      "type": "function"
    },
    {
      "inputs": [
        {
          "internalType": "address",
          "name": "owner",
          "type": "address"
        },
        {
          "internalType": "address",
          "name": "token",
          "type": "address"
        },
        {
          "internalType": "address",
          "name": "recipient",
          "type": "address"
        },
        {
          "internalType": "uint256",
          "name": "value",
          "type": "uint256"
        },
        {
          "internalType": "uint256",
          "name": "deadline",
          "type": "uint256"
        },
        {
          "internalType": "bytes32",
          "name": "nonce",
          "type": "bytes32"
        }
      ],
      "name": "isPaymentUsed",
      "outputs": [
        {
          "internalType": "bool",
          "name": "",
          "type": "bool"
        }
      ],
      "stateMutability": "view",
      "type": "function"
    },
    {
      "inputs": [],
      "name": "owner",
      "outputs": [
        {
          "internalType": "address",
          "name": "",
          "type": "address"
        }
      ],
      "stateMutability": "view",
      "type": "function"
    },
    {
      "inputs": [],
      "name": "pause",
      "outputs": [],
      "stateMutability": "nonpayable",
      "type": "function"
    },
    {
      "inputs": [],
      "name": "paused",
      "outputs": [
        {
          "internalType": "bool",
          "name": "",
          "type": "bool"
        }
      ],
      "stateMutability": "view",
      "type": "function"
    },
    {
      "inputs": [],
      "name": "platformFeeBps",
      "outputs": [
        {
          "internalType": "uint256",
          "name": "",
          "type": "uint256"
        }
      ],
      "stateMutability": "view",
      "type": "function"
    },
    {
      "inputs": [],
      "name": "renounceOwnership",
      "outputs": [],
      "stateMutability": "nonpayable",
      "type": "function"
    },
    {
      "inputs": [
        {
          "internalType": "address",
          "name": "newRecipient",
          "type": "address"
        }
      ],
      "name": "setFeeRecipient",
      "outputs": [],
      "stateMutability": "nonpayable",
      "type": "function"
    },
    {
      "inputs": [
        {
          "components": [
            {
              "internalType": "address",
              "name": "owner",
              "type": "address"
            },
            {
              "internalType": "address",
              "name": "token",
              "type": "address"
            },
            {
              "internalType": "uint256",
              "name": "value",
              "type": "uint256"
            },
            {
              "internalType": "uint256",
              "name": "deadline",
              "type": "uint256"
            },
            {
              "internalType": "address",
              "name": "recipient",
              "type": "address"
            },
            {
              "internalType": "bytes32",
              "name": "nonce",
              "type": "bytes32"
            }
          ],
          "internalType": "struct PaymentData",
          "name": "payment",
          "type": "tuple"
        },
        {
          "components": [
            {
              "internalType": "uint8",
              "name": "v",
              "type": "uint8"
            },
            {
              "internalType": "bytes32",
              "name": "r",
              "type": "bytes32"
            },
            {
              "internalType": "bytes32",
              "name": "s",
              "type": "bytes32"
            }
          ],
          "internalType": "struct Signature",
          "name": "authSig",
          "type": "tuple"
        }
      ],
      "name": "settlePayment",
      "outputs": [
        {
          "internalType": "bool",
          "name": "",
          "type": "bool"
        }
      ],
      "stateMutability": "nonpayable",
      "type": "function"
    },
    {
      "inputs": [
        {
          "components": [
            {
              "internalType": "address",
              "name": "owner",
              "type": "address"
            },
            {
              "internalType": "address",
              "name": "token",
              "type": "address"
            },
            {
              "internalType": "uint256",
              "name": "value",
              "type": "uint256"
            },
            {
              "internalType": "uint256",
              "name": "deadline",
              "type": "uint256"
            },
            {
              "internalType": "address",
              "name": "recipient",
              "type": "address"
            },
            {
              "internalType": "bytes32",
              "name": "nonce",
              "type": "bytes32"
            }
          ],
          "internalType": "struct PaymentData",
          "name": "payment",
          "type": "tuple"
        },
        {
          "components": [
            {
              "internalType": "uint8",
              "name": "v",
              "type": "uint8"
            },
            {
              "internalType": "bytes32",
              "name": "r",
              "type": "bytes32"
            },
            {
              "internalType": "bytes32",
              "name": "s",
              "type": "bytes32"
            }
          ],
          "internalType": "struct Signature",
          "name": "permitSig",
          "type": "tuple"
        },
        {
          "components": [
            {
              "internalType": "uint8",
              "name": "v",
              "type": "uint8"
            },
            {
              "internalType": "bytes32",
              "name": "r",
              "type": "bytes32"
            },
            {
              "internalType": "bytes32",
              "name": "s",
              "type": "bytes32"
            }
          ],
          "internalType": "struct Signature",
          "name": "authSig",
          "type": "tuple"
        }
      ],
      "name": "settlePaymentWithPermit",
      "outputs": [
        {
          "internalType": "bool",
          "name": "",
          "type": "bool"
        }
      ],
      "stateMutability": "nonpayable",
      "type": "function"
    },
    {
      "inputs": [
        {
          "internalType": "address",
          "name": "",
          "type": "address"
        }
      ],
      "name": "totalPaid",
      "outputs": [
        {
          "internalType": "uint256",
          "name": "",
          "type": "uint256"
        }
      ],
      "stateMutability": "view",
      "type": "function"
    },
    {
      "inputs": [
        {
          "internalType": "address",
          "name": "",
          "type": "address"
        }
      ],
      "name": "totalReceived",
      "outputs": [
        {
          "internalType": "uint256",
          "name": "",
          "type": "uint256"
        }
      ],
      "stateMutability": "view",
      "type": "function"
    },
    {
      "inputs": [
        {
          "internalType": "address",
          "name": "newOwner",
          "type": "address"
        }
      ],
      "name": "transferOwnership",
      "outputs": [],
      "stateMutability": "nonpayable",
      "type": "function"
    },
    {
      "inputs": [],
      "name": "unpause",
      "outputs": [],
      "stateMutability": "nonpayable",
      "type": "function"
    },
    {
      "inputs": [
        {
          "internalType": "uint256",
          "name": "newBps",
          "type": "uint256"
        }
      ],
      "name": "updatePlatformFeeBps",
      "outputs": [],
      "stateMutability": "nonpayable",
      "type": "function"
    },
    {
      "inputs": [
        {
          "internalType": "bytes32",
          "name": "",
          "type": "bytes32"
        }
      ],
      "name": "usedPayments",
      "outputs": [
        {
          "internalType": "bool",
          "name": "",
          "type": "bool"
        }
      ],
      "stateMutability": "view",
      "type": "function"
    },
    {
      "inputs": [
        {
          "internalType": "address",
          "name": "token",
          "type": "address"
        },
        {
          "internalType": "uint256",
          "name": "amount",
          "type": "uint256"
        },
        {
          "internalType": "address",
          "name": "to",
          "type": "address"
        }
      ],
      "name": "withdrawFees",
      "outputs": [],
      "stateMutability": "nonpayable",
      "type": "function"
    }
  ],
  "bytecode": "0x60a06040523480156200001157600080fd5b5060405162002e6438038062002e64833981810160405281019062000037919062000409565b336001600081905550600073ffffffffffffffffffffffffffffffffffffffff168173ffffffffffffffffffffffffffffffffffffffff1603620000b55760006040517f1e4fbdf7000000000000000000000000000000000000000000000000000000008152600401620000ac919062000461565b60405180910390fd5b620000c681620002a160201b60201c565b50600073ffffffffffffffffffffffffffffffffffffffff168273ffffffffffffffffffffffffffffffffffffffff160362000139576040517f08c379a00000000000000000000000000000000000000000000000000000000081526004016200013090620004df565b60405180910390fd5b6103e881111562000181576040517f08c379a0000000000000000000000000000000000000000000000000000000008152600401620001789062000551565b60405180910390fd5b81600760006101000a81548173ffffffffffffffffffffffffffffffffffffffff021916908373ffffffffffffffffffffffffffffffffffffffff160217905550806006819055507f8b73c3c69bb8fe3d512ecc4cf759cc79239f7b179b0ffacaa9a75d522b39400f6040518060400160405280600f81526020017f53343032466163696c697461746f720000000000000000000000000000000000815250805190602001206040518060400160405280600181526020017f31000000000000000000000000000000000000000000000000000000000000008152508051906020012046306040516020016200027c9594939291906200059f565b60405160208183030381529060405280519060200120608081815250505050620005fc565b600060018054906101000a900473ffffffffffffffffffffffffffffffffffffffff169050816001806101000a81548173ffffffffffffffffffffffffffffffffffffffff021916908373ffffffffffffffffffffffffffffffffffffffff1602179055508173ffffffffffffffffffffffffffffffffffffffff168173ffffffffffffffffffffffffffffffffffffffff167f8be0079c531659141344cd1fd0a4f28419497f9722a3daafe3b4186f6b6457e060405160405180910390a35050565b600080fd5b600073ffffffffffffffffffffffffffffffffffffffff82169050919050565b6000620003968262000369565b9050919050565b620003a88162000389565b8114620003b457600080fd5b50565b600081519050620003c8816200039d565b92915050565b6000819050919050565b620003e381620003ce565b8114620003ef57600080fd5b50565b6000815190506200040381620003d8565b92915050565b6000806040838503121562000423576200042262000364565b5b60006200043385828601620003b7565b92505060206200044685828601620003f2565b9150509250929050565b6200045b8162000389565b82525050565b600060208201905062000478600083018462000450565b92915050565b600082825260208201905092915050565b7f496e76616c69642066656520726563697069656e740000000000000000000000600082015250565b6000620004c76015836200047e565b9150620004d4826200048f565b602082019050919050565b60006020820190508181036000830152620004fa81620004b8565b9050919050565b7f46656520746f6f20686967680000000000000000000000000000000000000000600082015250565b600062000539600c836200047e565b9150620005468262000501565b602082019050919050565b600060208201905081810360008301526200056c816200052a565b9050919050565b6000819050919050565b620005888162000573565b82525050565b6200059981620003ce565b82525050565b600060a082019050620005b660008301886200057d565b620005c560208301876200057d565b620005d460408301866200057d565b620005e360608301856200058e565b620005f2608083018462000450565b9695505050505050565b6080516128456200061f6000396000818161048e01526112d501526128456000f3fe608060405234801561001057600080fd5b50600436106101425760003560e01c80638456cb59116100b8578063ab701d691161007c578063ab701d6914610343578063b95390b41461035f578063e14380a21461038f578063e74b981b146103bf578063f2fde38b146103db578063fcf66664146103f757610142565b80638456cb59146102b15780638add105e146102bb5780638d01513c146102eb5780638da5cb5b146103095780639ba372c21461032757610142565b80633f4ba83a1161010a5780633f4ba83a14610213578063469048401461021d5780634df9cfb31461023b5780635c975abb1461026b5780636d3298cb14610289578063715018a6146102a757610142565b80630b6a44221461014757806322dcd13e14610177578063345f121c146101955780633644e515146101c55780633dd6d533146101e3575b600080fd5b610161600480360381019061015c9190611979565b610427565b60405161016e91906119c1565b60405180910390f35b61017f610447565b60405161018c91906119f5565b60405180910390f35b6101af60048036038101906101aa9190611a9a565b61044d565b6040516101bc9190611b36565b60405180910390f35b6101cd61048c565b6040516101da9190611b36565b60405180910390f35b6101fd60048036038101906101f89190611b51565b6104b0565b60405161020a91906119f5565b60405180910390f35b61021b6104c8565b005b61022561051d565b6040516102329190611b8d565b60405180910390f35b61025560048036038101906102509190611b51565b610543565b60405161026291906119f5565b60405180910390f35b61027361055b565b60405161028091906119c1565b60405180910390f35b610291610572565b60405161029e9190611b36565b60405180910390f35b6102af610596565b005b6102b96105aa565b005b6102d560048036038101906102d09190611beb565b6105ff565b6040516102e291906119c1565b60405180910390f35b6102f3610706565b60405161030091906119f5565b60405180910390f35b61031161070c565b60405161031e9190611b8d565b60405180910390f35b610341600480360381019061033c9190611c40565b610734565b005b61035d60048036038101906103589190611c93565b610a6b565b005b61037960048036038101906103749190611a9a565b610b03565b60405161038691906119c1565b60405180910390f35b6103a960048036038101906103a49190611cc0565b610b67565b6040516103b691906119c1565b60405180910390f35b6103d960048036038101906103d49190611b51565b610bb0565b005b6103f560048036038101906103f09190611b51565b610ced565b005b610411600480360381019061040c9190611b51565b610d73565b60405161041e91906119f5565b60405180910390f35b60056020528060005260406000206000915054906101000a900460ff1681565b60065481565b600086868686868660405160200161046a96959493929190611d8b565b6040516020818303038152906040528051906020012090509695505050505050565b7f000000000000000000000000000000000000000000000000000000000000000081565b60026020528060005260406000206000915090505481565b6104d0610d8b565b6104d8610e12565b3373ffffffffffffffffffffffffffffffffffffffff167f306ca22c455fe433ebbf0542bbf947ea6a725495f9e1043db2a47e3c5794038560405160405180910390a2565b600760009054906101000a900473ffffffffffffffffffffffffffffffffffffffff1681565b60036020528060005260406000206000915090505481565b6000600160009054906101000a900460ff16905090565b7fbf0788062f4a4a3fa7fbee16a097595ad663a14fbd9c924324ab6ee32617998d81565b61059e610d8b565b6105a86000610e75565b565b6105b2610d8b565b6105ba610f38565b3373ffffffffffffffffffffffffffffffffffffffff167f7c83004a7e59a8ea03b200186c4dda29a4e144d9844d63dbc1a09acf7dfcd48560405160405180910390a2565b6000610609610f9a565b610611610fe0565b61061a84611021565b610623846111c9565b61062d84836112d1565b8360200160208101906106409190611b51565b73ffffffffffffffffffffffffffffffffffffffff1663d505accf85600001602081019061066e9190611b51565b308760400135886060013588600001602081019061068c9190611e34565b89602001358a604001356040518863ffffffff1660e01b81526004016106b89796959493929190611e70565b600060405180830381600087803b1580156106d257600080fd5b505af11580156106e6573d6000803e3d6000fd5b505050506106f3846114e0565b600190506106ff6118ec565b9392505050565b6103e881565b600060018054906101000a900473ffffffffffffffffffffffffffffffffffffffff16905090565b61073c610d8b565b610744610f9a565b600073ffffffffffffffffffffffffffffffffffffffff168373ffffffffffffffffffffffffffffffffffffffff16036107b3576040517f08c379a00000000000000000000000000000000000000000000000000000000081526004016107aa90611f3c565b60405180910390fd5b600073ffffffffffffffffffffffffffffffffffffffff168173ffffffffffffffffffffffffffffffffffffffff1603610822576040517f08c379a000000000000000000000000000000000000000000000000000000000815260040161081990611fa8565b60405180910390fd5b60008211610865576040517f08c379a000000000000000000000000000000000000000000000000000000000815260040161085c90612014565b60405180910390fd5b6000600460008573ffffffffffffffffffffffffffffffffffffffff1673ffffffffffffffffffffffffffffffffffffffff168152602001908152602001600020549050828110156108ec576040517f08c379a00000000000000000000000000000000000000000000000000000000081526004016108e390612080565b60405180910390fd5b82816108f891906120cf565b600460008673ffffffffffffffffffffffffffffffffffffffff1673ffffffffffffffffffffffffffffffffffffffff168152602001908152602001600020819055508373ffffffffffffffffffffffffffffffffffffffff1663a9059cbb83856040518363ffffffff1660e01b8152600401610976929190612103565b6020604051808303816000875af1158015610995573d6000803e3d6000fd5b505050506040513d601f19601f820116820180604052508101906109b99190612158565b6109f8576040517f08c379a00000000000000000000000000000000000000000000000000000000081526004016109ef906121d1565b60405180910390fd5b8173ffffffffffffffffffffffffffffffffffffffff168473ffffffffffffffffffffffffffffffffffffffff167f5e110f8bc8a20b65dcc87f224bdf1cc039346e267118bae2739847f07321ffa885604051610a5591906119f5565b60405180910390a350610a666118ec565b505050565b610a73610d8b565b6103e8811115610ab8576040517f08c379a0000000000000000000000000000000000000000000000000000000008152600401610aaf9061223d565b60405180910390fd5b60006006549050816006819055507fd347e206f25a89b917fc9482f1a2d294d749baa4dc9bde7fb495ee11fe4916438183604051610af792919061225d565b60405180910390a15050565b600080878787878787604051602001610b2196959493929190611d8b565b6040516020818303038152906040528051906020012090506005600082815260200190815260200160002060009054906101000a900460ff169150509695505050505050565b6000610b71610f9a565b610b79610fe0565b610b8283611021565b610b8b836111c9565b610b9583836112d1565b610b9e836114e0565b60019050610baa6118ec565b92915050565b610bb8610d8b565b600073ffffffffffffffffffffffffffffffffffffffff168173ffffffffffffffffffffffffffffffffffffffff1603610c27576040517f08c379a0000000000000000000000000000000000000000000000000000000008152600401610c1e906122d2565b60405180910390fd5b6000600760009054906101000a900473ffffffffffffffffffffffffffffffffffffffff16905081600760006101000a81548173ffffffffffffffffffffffffffffffffffffffff021916908373ffffffffffffffffffffffffffffffffffffffff1602179055508173ffffffffffffffffffffffffffffffffffffffff168173ffffffffffffffffffffffffffffffffffffffff167faaebcf1bfa00580e41d966056b48521fa9f202645c86d4ddf28113e617c1b1d360405160405180910390a35050565b610cf5610d8b565b600073ffffffffffffffffffffffffffffffffffffffff168173ffffffffffffffffffffffffffffffffffffffff1603610d675760006040517f1e4fbdf7000000000000000000000000000000000000000000000000000000008152600401610d5e9190611b8d565b60405180910390fd5b610d7081610e75565b50565b60046020528060005260406000206000915090505481565b610d936118f6565b73ffffffffffffffffffffffffffffffffffffffff16610db161070c565b73ffffffffffffffffffffffffffffffffffffffff1614610e1057610dd46118f6565b6040517f118cdaa7000000000000000000000000000000000000000000000000000000008152600401610e079190611b8d565b60405180910390fd5b565b610e1a6118fe565b6000600160006101000a81548160ff0219169083151502179055507f5db9ee0a495bf2e6ff9c91a7834c1ba4fdd244a5e8aa4e537bd38aeae4b073aa610e5e6118f6565b604051610e6b9190611b8d565b60405180910390a1565b600060018054906101000a900473ffffffffffffffffffffffffffffffffffffffff169050816001806101000a81548173ffffffffffffffffffffffffffffffffffffffff021916908373ffffffffffffffffffffffffffffffffffffffff1602179055508173ffffffffffffffffffffffffffffffffffffffff168173ffffffffffffffffffffffffffffffffffffffff167f8be0079c531659141344cd1fd0a4f28419497f9722a3daafe3b4186f6b6457e060405160405180910390a35050565b610f40610fe0565b60018060006101000a81548160ff0219169083151502179055507f62e78cea01bee320cd4e420270b5ea74000d11b0c9f74754ebdbfc544b05a258610f836118f6565b604051610f909190611b8d565b60405180910390a1565b600260005403610fd6576040517f3ee5aeb500000000000000000000000000000000000000000000000000000000815260040160405180910390fd5b6002600081905550565b610fe861055b565b1561101f576040517fd93c066500000000000000000000000000000000000000000000000000000000815260040160405180910390fd5b565b600073ffffffffffffffffffffffffffffffffffffffff1681600001602081019061104c9190611b51565b73ffffffffffffffffffffffffffffffffffffffff16141580156110af5750600073ffffffffffffffffffffffffffffffffffffffff168160800160208101906110969190611b51565b73ffffffffffffffffffffffffffffffffffffffff1614155b6110ee576040517f08c379a00000000000000000000000000000000000000000000000000000000081526004016110e59061233e565b60405180910390fd5b600073ffffffffffffffffffffffffffffffffffffffff168160200160208101906111199190611b51565b73ffffffffffffffffffffffffffffffffffffffff160361116f576040517f08c379a000000000000000000000000000000000000000000000000000000000815260040161116690611f3c565b60405180910390fd5b60008160400135118015611187575080606001354211155b6111c6576040517f08c379a00000000000000000000000000000000000000000000000000000000081526004016111bd906123aa565b60405180910390fd5b50565b60008160000160208101906111de9190611b51565b8260200160208101906111f19190611b51565b8360800160208101906112049190611b51565b846040013585606001358660a0013560405160200161122896959493929190611d8b565b6040516020818303038152906040528051906020012090506005600082815260200190815260200160002060009054906101000a900460ff16156112a1576040517f08c379a000000000000000000000000000000000000000000000000000000000815260040161129890612416565b60405180910390fd5b60016005600083815260200190815260200160002060006101000a81548160ff0219169083151502179055505050565b60007f00000000000000000000000000000000000000000000000000000000000000007fbf0788062f4a4a3fa7fbee16a097595ad663a14fbd9c924324ab6ee32617998d8460000160208101906113289190611b51565b3086602001602081019061133c9190611b51565b876040013588606001358960800160208101906113599190611b51565b8a60a00135604051602001611375989796959493929190612436565b6040516020818303038152906040528051906020012060405160200161139c92919061250b565b60405160208183030381529060405280519060200120905060006001828460000160208101906113cc9190611e34565b85602001358660400135604051600081526020016040526040516113f39493929190612542565b6020604051602081039080840390855afa158015611415573d6000803e3d6000fd5b5050506020604051035190508360000160208101906114349190611b51565b73ffffffffffffffffffffffffffffffffffffffff168173ffffffffffffffffffffffffffffffffffffffff1614801561149b5750600073ffffffffffffffffffffffffffffffffffffffff168173ffffffffffffffffffffffffffffffffffffffff1614155b6114da576040517f08c379a00000000000000000000000000000000000000000000000000000000081526004016114d1906125d3565b60405180910390fd5b50505050565b60008160200160208101906114f59190611b51565b90506000612710600654846040013561150e91906125f3565b6115189190612664565b9050600081846040013561152c91906120cf565b90508273ffffffffffffffffffffffffffffffffffffffff166323b872dd85600001602081019061155d9190611b51565b8660800160208101906115709190611b51565b846040518463ffffffff1660e01b815260040161158f93929190612695565b6020604051808303816000875af11580156115ae573d6000803e3d6000fd5b505050506040513d601f19601f820116820180604052508101906115d29190612158565b611611576040517f08c379a000000000000000000000000000000000000000000000000000000000815260040161160890612718565b60405180910390fd5b6000821115611754578273ffffffffffffffffffffffffffffffffffffffff166323b872dd8560000160208101906116499190611b51565b30856040518463ffffffff1660e01b815260040161166993929190612695565b6020604051808303816000875af1158015611688573d6000803e3d6000fd5b505050506040513d601f19601f820116820180604052508101906116ac9190612158565b6116eb576040517f08c379a00000000000000000000000000000000000000000000000000000000081526004016116e290612784565b60405180910390fd5b81600460008660200160208101906117039190611b51565b73ffffffffffffffffffffffffffffffffffffffff1673ffffffffffffffffffffffffffffffffffffffff168152602001908152602001600020600082825461174c91906127a4565b925050819055505b8360400135600260008660000160208101906117709190611b51565b73ffffffffffffffffffffffffffffffffffffffff1673ffffffffffffffffffffffffffffffffffffffff16815260200190815260200160002060008282546117b991906127a4565b9250508190555080600360008660800160208101906117d89190611b51565b73ffffffffffffffffffffffffffffffffffffffff1673ffffffffffffffffffffffffffffffffffffffff168152602001908152602001600020600082825461182191906127a4565b9250508190555083608001602081019061183b9190611b51565b73ffffffffffffffffffffffffffffffffffffffff168460000160208101906118649190611b51565b73ffffffffffffffffffffffffffffffffffffffff1685602001602081019061188d9190611b51565b73ffffffffffffffffffffffffffffffffffffffff167feb2e4fd057885f66a2e3eb4394b3cb3ee1e6a566cf23a464262a044d91fe48fa8760400135868960a001356040516118de939291906127d8565b60405180910390a450505050565b6001600081905550565b600033905090565b61190661055b565b61193c576040517f8dfc202b00000000000000000000000000000000000000000000000000000000815260040160405180910390fd5b565b600080fd5b6000819050919050565b61195681611943565b811461196157600080fd5b50565b6000813590506119738161194d565b92915050565b60006020828403121561198f5761198e61193e565b5b600061199d84828501611964565b91505092915050565b60008115159050919050565b6119bb816119a6565b82525050565b60006020820190506119d660008301846119b2565b92915050565b6000819050919050565b6119ef816119dc565b82525050565b6000602082019050611a0a60008301846119e6565b92915050565b600073ffffffffffffffffffffffffffffffffffffffff82169050919050565b6000611a3b82611a10565b9050919050565b611a4b81611a30565b8114611a5657600080fd5b50565b600081359050611a6881611a42565b92915050565b611a77816119dc565b8114611a8257600080fd5b50565b600081359050611a9481611a6e565b92915050565b60008060008060008060c08789031215611ab757611ab661193e565b5b6000611ac589828a01611a59565b9650506020611ad689828a01611a59565b9550506040611ae789828a01611a59565b9450506060611af889828a01611a85565b9350506080611b0989828a01611a85565b92505060a0611b1a89828a01611964565b9150509295509295509295565b611b3081611943565b82525050565b6000602082019050611b4b6000830184611b27565b92915050565b600060208284031215611b6757611b6661193e565b5b6000611b7584828501611a59565b91505092915050565b611b8781611a30565b82525050565b6000602082019050611ba26000830184611b7e565b92915050565b600080fd5b600060c08284031215611bc357611bc2611ba8565b5b81905092915050565b600060608284031215611be257611be1611ba8565b5b81905092915050565b60008060006101808486031215611c0557611c0461193e565b5b6000611c1386828701611bad565b93505060c0611c2486828701611bcc565b925050610120611c3686828701611bcc565b9150509250925092565b600080600060608486031215611c5957611c5861193e565b5b6000611c6786828701611a59565b9350506020611c7886828701611a85565b9250506040611c8986828701611a59565b9150509250925092565b600060208284031215611ca957611ca861193e565b5b6000611cb784828501611a85565b91505092915050565b6000806101208385031215611cd857611cd761193e565b5b6000611ce685828601611bad565b92505060c0611cf785828601611bcc565b9150509250929050565b60008160601b9050919050565b6000611d1982611d01565b9050919050565b6000611d2b82611d0e565b9050919050565b611d43611d3e82611a30565b611d20565b82525050565b6000819050919050565b611d64611d5f826119dc565b611d49565b82525050565b6000819050919050565b611d85611d8082611943565b611d6a565b82525050565b6000611d978289611d32565b601482019150611da78288611d32565b601482019150611db78287611d32565b601482019150611dc78286611d53565b602082019150611dd78285611d53565b602082019150611de78284611d74565b602082019150819050979650505050505050565b600060ff82169050919050565b611e1181611dfb565b8114611e1c57600080fd5b50565b600081359050611e2e81611e08565b92915050565b600060208284031215611e4a57611e4961193e565b5b6000611e5884828501611e1f565b91505092915050565b611e6a81611dfb565b82525050565b600060e082019050611e85600083018a611b7e565b611e926020830189611b7e565b611e9f60408301886119e6565b611eac60608301876119e6565b611eb96080830186611e61565b611ec660a0830185611b27565b611ed360c0830184611b27565b98975050505050505050565b600082825260208201905092915050565b7f496e76616c696420746f6b656e00000000000000000000000000000000000000600082015250565b6000611f26600d83611edf565b9150611f3182611ef0565b602082019050919050565b60006020820190508181036000830152611f5581611f19565b9050919050565b7f496e76616c696420726563697069656e74000000000000000000000000000000600082015250565b6000611f92601183611edf565b9150611f9d82611f5c565b602082019050919050565b60006020820190508181036000830152611fc181611f85565b9050919050565b7f5a65726f20616d6f756e74000000000000000000000000000000000000000000600082015250565b6000611ffe600b83611edf565b915061200982611fc8565b602082019050919050565b6000602082019050818103600083015261202d81611ff1565b9050919050565b7f496e73756666696369656e742061636372756564000000000000000000000000600082015250565b600061206a601483611edf565b915061207582612034565b602082019050919050565b600060208201905081810360008301526120998161205d565b9050919050565b7f4e487b7100000000000000000000000000000000000000000000000000000000600052601160045260246000fd5b60006120da826119dc565b91506120e5836119dc565b92508282039050818111156120fd576120fc6120a0565b5b92915050565b60006040820190506121186000830185611b7e565b61212560208301846119e6565b9392505050565b612135816119a6565b811461214057600080fd5b50565b6000815190506121528161212c565b92915050565b60006020828403121561216e5761216d61193e565b5b600061217c84828501612143565b91505092915050565b7f5769746864726177207472616e73666572206661696c65640000000000000000600082015250565b60006121bb601883611edf565b91506121c682612185565b602082019050919050565b600060208201905081810360008301526121ea816121ae565b9050919050565b7f46656520746f6f20686967680000000000000000000000000000000000000000600082015250565b6000612227600c83611edf565b9150612232826121f1565b602082019050919050565b600060208201905081810360008301526122568161221a565b9050919050565b600060408201905061227260008301856119e6565b61227f60208301846119e6565b9392505050565b7f496e76616c69642066656520726563697069656e740000000000000000000000600082015250565b60006122bc601583611edf565b91506122c782612286565b602082019050919050565b600060208201905081810360008301526122eb816122af565b9050919050565b7f496e76616c696420616464726573730000000000000000000000000000000000600082015250565b6000612328600f83611edf565b9150612333826122f2565b602082019050919050565b600060208201905081810360008301526123578161231b565b9050919050565b7f496e76616c696420706172616d73000000000000000000000000000000000000600082015250565b6000612394600e83611edf565b915061239f8261235e565b602082019050919050565b600060208201905081810360008301526123c381612387565b9050919050565b7f5061796d656e7420757365640000000000000000000000000000000000000000600082015250565b6000612400600c83611edf565b915061240b826123ca565b602082019050919050565b6000602082019050818103600083015261242f816123f3565b9050919050565b60006101008201905061244c600083018b611b27565b612459602083018a611b7e565b6124666040830189611b7e565b6124736060830188611b7e565b61248060808301876119e6565b61248d60a08301866119e6565b61249a60c0830185611b7e565b6124a760e0830184611b27565b9998505050505050505050565b600081905092915050565b7f1901000000000000000000000000000000000000000000000000000000000000600082015250565b60006124f56002836124b4565b9150612500826124bf565b600282019050919050565b6000612516826124e8565b91506125228285611d74565b6020820191506125328284611d74565b6020820191508190509392505050565b60006080820190506125576000830187611b27565b6125646020830186611e61565b6125716040830185611b27565b61257e6060830184611b27565b95945050505050565b7f4261642073696700000000000000000000000000000000000000000000000000600082015250565b60006125bd600783611edf565b91506125c882612587565b602082019050919050565b600060208201905081810360008301526125ec816125b0565b9050919050565b60006125fe826119dc565b9150612609836119dc565b9250828202612617816119dc565b9150828204841483151761262e5761262d6120a0565b5b5092915050565b7f4e487b7100000000000000000000000000000000000000000000000000000000600052601260045260246000fd5b600061266f826119dc565b915061267a836119dc565b92508261268a57612689612635565b5b828204905092915050565b60006060820190506126aa6000830186611b7e565b6126b76020830185611b7e565b6126c460408301846119e6565b949350505050565b7f5472616e73666572206661696c65640000000000000000000000000000000000600082015250565b6000612702600f83611edf565b915061270d826126cc565b602082019050919050565b60006020820190508181036000830152612731816126f5565b9050919050565b7f466565207472616e73666572206661696c656400000000000000000000000000600082015250565b600061276e601383611edf565b915061277982612738565b602082019050919050565b6000602082019050818103600083015261279d81612761565b9050919050565b60006127af826119dc565b91506127ba836119dc565b92508282019050808211156127d2576127d16120a0565b5b92915050565b60006060820190506127ed60008301866119e6565b6127fa60208301856119e6565b6128076040830184611b27565b94935050505056fea2646970667358221220439188844fc898ed25f03f3733e063651fb1a963a5c3d28f911f4a8d4dfe364d64736f6c63430008180033",
  "linkReferences": {},
  "deployedLinkReferences": {}
}